{
  "contractName": "SimpleBank",
  "abi": [
    {
      "constant": true,
      "inputs": [],
      "name": "owner",
      "outputs": [
        {
          "name": "",
          "type": "address"
        }
      ],
      "payable": false,
      "stateMutability": "view",
      "type": "function"
    },
    {
      "inputs": [],
      "payable": true,
      "stateMutability": "payable",
      "type": "constructor"
    },
    {
      "anonymous": false,
      "inputs": [
        {
          "indexed": true,
          "name": "accountAddress",
          "type": "address"
        },
        {
          "indexed": false,
          "name": "amount",
          "type": "uint256"
        }
      ],
      "name": "LogDepositMade",
      "type": "event"
    },
    {
      "constant": false,
      "inputs": [],
      "name": "enroll",
      "outputs": [
        {
          "name": "",
          "type": "uint256"
        }
      ],
      "payable": false,
      "stateMutability": "nonpayable",
      "type": "function"
    },
    {
      "constant": false,
      "inputs": [
        {
          "name": "",
          "type": "uint256"
        }
      ],
      "name": "deposit",
      "outputs": [
        {
          "name": "",
          "type": "uint256"
        }
      ],
      "payable": true,
      "stateMutability": "payable",
      "type": "function"
    },
    {
      "constant": false,
      "inputs": [
        {
          "name": "payAmount",
          "type": "uint256"
        }
      ],
      "name": "withdraw",
      "outputs": [
        {
          "name": "remainingBal",
          "type": "uint256"
        }
      ],
      "payable": false,
      "stateMutability": "nonpayable",
      "type": "function"
    },
    {
      "constant": true,
      "inputs": [],
      "name": "balance",
      "outputs": [
        {
          "name": "",
          "type": "uint256"
        }
      ],
      "payable": false,
      "stateMutability": "view",
      "type": "function"
    },
    {
      "constant": true,
      "inputs": [],
      "name": "depositsBalance",
      "outputs": [
        {
          "name": "",
          "type": "uint256"
        }
      ],
      "payable": false,
      "stateMutability": "view",
      "type": "function"
    }
  ],
  "bytecode": "0x608060405233600260006101000a81548173ffffffffffffffffffffffffffffffffffffffff021916908373ffffffffffffffffffffffffffffffffffffffff16021790555060008060006101000a81548160ff021916908360ff1602179055506104ef8061006f6000396000f3fe608060405260043610610078576000357c0100000000000000000000000000000000000000000000000000000000900463ffffffff168063138fbe711461007d5780632e1a7d4d146100a85780638da5cb5b146100f7578063b69ef8a81461014e578063b6b55f2514610179578063e65f2a7e146101bb575b600080fd5b34801561008957600080fd5b506100926101e6565b6040518082815260200191505060405180910390f35b3480156100b457600080fd5b506100e1600480360360208110156100cb57600080fd5b8101908080359060200190929190505050610205565b6040518082815260200191505060405180910390f35b34801561010357600080fd5b5061010c61032b565b604051808273ffffffffffffffffffffffffffffffffffffffff1673ffffffffffffffffffffffffffffffffffffffff16815260200191505060405180910390f35b34801561015a57600080fd5b50610163610351565b6040518082815260200191505060405180910390f35b6101a56004803603602081101561018f57600080fd5b8101908080359060200190929190505050610398565b6040518082815260200191505060405180910390f35b3480156101c757600080fd5b506101d061047c565b6040518082815260200191505060405180910390f35b60003073ffffffffffffffffffffffffffffffffffffffff1631905090565b6000600160003373ffffffffffffffffffffffffffffffffffffffff1673ffffffffffffffffffffffffffffffffffffffff16815260200190815260200160002054821115156102e45781600160003373ffffffffffffffffffffffffffffffffffffffff1673ffffffffffffffffffffffffffffffffffffffff168152602001908152602001600020600082825403925050819055503373ffffffffffffffffffffffffffffffffffffffff166108fc839081150290604051600060405180830381858888f193505050501580156102e2573d6000803e3d6000fd5b505b600160003373ffffffffffffffffffffffffffffffffffffffff1673ffffffffffffffffffffffffffffffffffffffff168152602001908152602001600020549050919050565b600260009054906101000a900473ffffffffffffffffffffffffffffffffffffffff1681565b6000600160003373ffffffffffffffffffffffffffffffffffffffff1673ffffffffffffffffffffffffffffffffffffffff16815260200190815260200160002054905090565b600034600160003373ffffffffffffffffffffffffffffffffffffffff1673ffffffffffffffffffffffffffffffffffffffff168152602001908152602001600020600082825401925050819055503373ffffffffffffffffffffffffffffffffffffffff167fa8126f7572bb1fdeae5b5aa9ec126438b91f658a07873f009d041ae690f3a193346040518082815260200191505060405180910390a2600160003373ffffffffffffffffffffffffffffffffffffffff1673ffffffffffffffffffffffffffffffffffffffff168152602001908152602001600020549050919050565b6000600160003373ffffffffffffffffffffffffffffffffffffffff1673ffffffffffffffffffffffffffffffffffffffff1681526020019081526020016000205490509056fea165627a7a723058208e8ceeb9fa81036df584913f4b17678e377a54af957114989fe90efa7919e81e0029",
  "source": "pragma solidity ^0.5.0;\n//import \"remix_tests.sol\"; // this import is automatically injected by Remix.\n\n\ncontract SimpleBank {\n   uint8 private clientCount;\n    mapping (address => uint) private balances;\n    address public owner;\n    \n\n\n  // Log the event about a deposit being made by an address and its amount\n    event LogDepositMade(address indexed accountAddress, uint amount);\n\n    // Constructor is \"payable\" so it can receive the initial funding of 30, \n    // required to reward the first 3 clients\n    constructor() public payable {\n                //    require(msg.value == 30 ether, \"30 ether initial funding required\");\n        /* Set the owner to the creator of this contract */\n                    owner = msg.sender;\n                  //  address owner = msg.sender;\n        clientCount = 0;\n    }\n\n\n\n\n\n  /// @notice Enroll a customer with the bank, \n    /// giving the first 3 of them 10 ether as reward\n    /// @return The balance of the user after enrolling\n    function enroll() public returns (uint) {\n       // if (clientCount < 10) {\n         //   clientCount++;\n          //  balances[msg.sender] = 10 ether;\n       // }\n        return balances[msg.sender];\n    }\n    \n\n    /// @notice Deposit ether into bank, requires method is \"payable\"\n    /// @return The balance of the user after the deposit is made\n    function deposit(uint) public payable returns (uint) {\n        balances[msg.sender] += msg.value;\n        emit LogDepositMade(msg.sender, msg.value);\n        \n        \n        return balances[msg.sender];\n    }\n\n    /// @notice Withdraw ether from bank\n    /// @return The balance remaining for the user\n    function withdraw(uint payAmount) public returns (uint remainingBal) {\n        // Check enough balance available, otherwise just return balance\n        if (payAmount <= balances[msg.sender]) {\n            balances[msg.sender] -= payAmount;\n            msg.sender.transfer(payAmount);\n        }\n        return balances[msg.sender];\n    }\n\n    /// @notice Just reads balance of the account requesting, so \"constant\"\n    /// @return The balance of the user\n    function balance() public view returns (uint) {\n        return balances[msg.sender];\n    }\n\n    /// @return The balance of the Simple Bank contract\n    function depositsBalance() public view returns (uint) {\n        return address(this).balance;\n    }\n}\n",
  "sourcePath": "/home/erta99/simpbank/contracts/simplebank.sol",
  "compiler": {
    "name": "solc",
    "version": "0.5.0+commit.1d4f565a.Emscripten.clang"
  },
  "schemaVersion": "3.0.1",
  "updatedAt": "2019-02-09T01:35:22.680Z",
  "devdoc": {
    "methods": {
      "balance()": {
        "return": "The balance of the user"
      },
      "deposit(uint256)": {
        "return": "The balance of the user after the deposit is made"
      },
      "depositsBalance()": {
        "return": "The balance of the Simple Bank contract"
      },
      "enroll()": {
        "return": "The balance of the user after enrolling"
      },
      "withdraw(uint256)": {
        "return": "The balance remaining for the user"
      }
    }
  },
  "userdoc": {
    "methods": {
      "balance()": {
        "notice": "Just reads balance of the account requesting, so \"constant\""
      },
      "deposit(uint256)": {
        "notice": "Deposit ether into bank, requires method is \"payable\""
      },
      "enroll()": {
        "notice": "Enroll a customer with the bank,  giving the first 3 of them 10 ether as reward"
      },
      "withdraw(uint256)": {
        "notice": "Withdraw ether from bank"
      }
    }
  }
}